S00B00004144432E7372656351
S3150800000000500020F1070008790600087F0600085E
S31508000010850600088B060008910600080000000007
S31508000020000000000000000000000000970600081D
S31508000030A306000800000000AF060008BB0600087B
S31508000040390800083908000839080008390800087E
S31508000050390800083908000839080008390800086E
S31508000060390800083908000839080008C9060008D0
S31508000070390800083908000839080008390800084E
S31508000080390800083908000839080008390800083E
S31508000090390800083908000839080008390800082E
S315080000A0390800083908000839080008390800081E
S315080000B0390800083908000839080008390800080E
S315080000C039080008390800083908000839080008FE
S315080000D039080008390800083908000839080008EE
S315080000E03908000839080008390800080000000027
S315080000F000000000000000000000000000000000F2
S3110800010000000000000000005FF808F195
S3150800010C10B5054C237833B9044B13B10448AFF337
S3150800011C00800123237010BD680000200000000039
S3150800012CD435000808B5034B1BB103490348AFF394
S3150800013C008008BD000000006C000020D4350008C3
S3150800014C4FF0FF3C06E000BF4FF0010C02E000BF89
S3150800015C4FF0010C4DF804CD4FEA40024FEA41032B
S3150800016C7FEA226C18BF7FEA236C11D001B052EAE1
S3150800017C530C18BF90EA010F58BFB2EB030088BFA7
S3150800018CC81738BF6FEAE17018BF40F00100704716
S3150800019C7FEA226C02D15FEA402C05D17FEA236CF8
S315080001ACE4D15FEA412CE1D05DF8040B704700BF3F
S315080001BC844608466146FFE70FB5FFF7C9FF0028D6
S315080001CC48BF10F1000F0FBD4DF808EDFFF7F4FF0F
S315080001DC0CBF012000205DF808FB00BF4DF808EDA8
S315080001ECFFF7EAFF34BF012000205DF808FB00BFCB
S315080001FC4DF808EDFFF7E0FF94BF012000205DF8ED
S3150800020C08FB00BF4DF808EDFFF7D2FF94BF01209D
S3150800021C00205DF808FB00BF4DF808EDFFF7C8FF96
S3150800022C34BF012000205DF808FB00BF80B483B002
S3150800023C00AF78604FF06043D3F8803E03F00103BB
S3150800024C002B13D04FF06043D3F8003E03F00103A4
S3150800025C002B0BD000E000BF4FF060431B68002B4F
S3150800026CF9D04FF060437A68D2B21A707B68184698
S3150800027C0C37BD4680BC704780B586B000AFF860B9
S3150800028CB9607A6000237B6109E0BB685A1CBA60C6
S3150800029C1B781846FFF7CAFF7B6901337B617A69BD
S315080002AC7B689A42F1DB7B6818461837BD4680BDD9
S315080002BC80B588B002AF00F0BBFA00F027F800F062
S315080002CCDDF800F0BDF800F07DF80B4802F00CFBE9
S315080002DC38460A4B0093094B094A0A4902F0A8F911
S315080002EC3B697A691946084802F098FA4FF4FA708D
S315080002FC00F000FBF4E700BFEC350008000080BFF7
S3150800030CB400002084000020F835000880B594B0AD
S3150800031C00AF07F1280328220021184602F0C4FB77
S3150800032C07F1140300221A605A609A60DA601A619F
S3150800033C3B1D00221A605A609A60DA600123BB6280
S3150800034C4FF48033FB6200233B630123BB63022318
S3150800035C7B644FF48033BB644FF4E013FB6407F102
S3150800036C2803184601F0FCFB0346002B01D000F0CD
S3150800037CDDF80F237B610223BB610023FB614FF47D
S3150800038C80633B6200237B6207F114030221184643
S3150800039C01F068FE0346002B01D000F0C7F80223D3
S315080003AC7B604FF40043FB603B1D184601F0D4FFFD
S315080003BC0346002B01D000F0B9F800BF5037BD46F4
S315080003CC80BD000080B584B000AF3B1D00221A60CA
S315080003DC5A609A60184B194A1A60174B00229A6091
S315080003EC154B01221A73144B00221A75124B4FF433
S315080003FC6022DA61104B00225A600F4B01221A61F7
S3150800040C0D4800F09BFA0346002B01D000F08EF83D
S3150800041C00237B600123BB600623FB603B1D19464A
S3150800042C054800F05DFC0346002B01D000F07EF871
S3150800043C00BF1037BD4680BD840000200024014053
S3150800044C80B582B000AF0C4B5B690B4A43F00103D5
S3150800045C5361094B5B6903F001037B607B680022DF
S3150800046C00210B2000F0BBFF0B2000F0D4FF00BFCF
S3150800047C0837BD4680BD00BF0010024080B588B065
S3150800048C00AF07F1100300221A605A609A60DA600E
S3150800049C244B9B69234A43F010039361214B9B69B8
S315080004AC03F01003FB60FB681E4B9B691D4A43F067
S315080004BC200393611B4B9B6903F02003BB60BB684D
S315080004CC184B9B69174A43F004039361154B9B69B8
S315080004DC03F004037B607B68124B9B69114A43F05B
S315080004EC080393610F4B9B6903F008033B603B6859
S315080004FC00224FF400510C4801F01AFB4FF400533C
S3150800050C3B6101237B610023BB610223FB6107F17D
S3150800051C10031946044801F087F900BF2037BD4679
S3150800052C80BD00BF001002400010014080B400AF2F
S3150800053C72B600BFFEE7000080B485B000AF154B5D
S3150800054C9B69144A43F001039361124B9B6903F0B0
S3150800055C0103BB60BB680F4BDB690E4A43F0805343
S3150800056CD3610C4BDB6903F080537B607B680A4BC9
S3150800057C5B68FB60FB6823F0E063FB60FB6843F099
S3150800058C0073FB60044AFB68536000BF1437BD4612
S3150800059C80BC7047001002400000014080B588B04E
S315080005AC00AF786007F1100300221A605A609A604F
S315080005BCDA607B681B68284A934249D1274B9B69AA
S315080005CC264A43F400739361244B9B6903F4007326
S315080005DCFB60FB68214B9B69204A43F0040393613B
S315080005EC1E4B9B6903F00403BB60BB6801233B618C
S315080005FC03237B6107F110031946194801F014F916
S3150800060C184B194A1A60174B00225A60154B0022D0
S3150800061C9A60144B8022DA60124B4FF480721A617E
S3150800062C104B4FF480625A610E4B20229A610D4B87
S3150800063C0022DA610B4800F009FF0346002B01D0B3
S3150800064CFFF774FF7B68074A1A62064A7B6853628F
S3150800065C00BF2037BD4680BD002401400010024073
S3150800066C00080140B40000200800024080B400AF26
S3150800067CFEE780B400AFFEE780B400AFFEE780B4B7
S3150800068C00AFFEE780B400AFFEE780B400AF00BF52
S3150800069CBD4680BC704780B400AF00BFBD4680BC69
S315080006AC704780B400AF00BFBD4680BC704780B5AC
S315080006BC00AF00F003F900BF80BD000080B500AFA5
S315080006CC024800F07DFF00BF80BD00BFB4000020CB
S315080006DC80B586B000AFF860B9607A6000237B619C
S315080006EC0AE0AFF300800146BB685A1CBA60CAB26E
S315080006FC1A707B6901337B617A697B689A42F0DBF5
S3150800070C7B6818461837BD4680BD80B483B000AFE9
S3150800071C78604FF0FF3318460C37BD4680BC7047DF
S3150800072C80B483B000AF786039603B684FF40052F0
S3150800073C5A60002318460C37BD4680BC704780B4F7
S3150800074C83B000AF7860012318460C37BD4680BCD1
S3150800075C704780B485B000AFF860B9607A60002342
S3150800076C18461437BD4680BC7047000080B586B065
S3150800077C00AF7860144A154BD31A7B617B693B61D1
S3150800078C134B1B68002B02D1114B124A1A60104BE3
S3150800079C1A687B6813443A699A4207D202F0D2F96E
S315080007AC03460C221A604FF0FF3309E0084B1B680E
S315080007BCFB60074B1A687B681344054A1360FB6891
S315080007CC18461837BD4680BD0050002000040000AE
S315080007DCF80000205002002080B400AF00BFBD46D0
S315080007EC80BC7047FFF7F8FF0B480C490C4A0023EE
S315080007FC02E0D458C4500433C4188C42F9D3094ABD
S3150800080C094C002301E013600432A242FBD302F028
S3150800081C9FF9FFF74DFD7047000000206800002087
S3150800082C98360008680000204C020020FEE70000FD
S3150800083C80B500AF084B1B68074A43F010031360DA
S3150800084C032000F0C1FD0F2000F008F8FFF774FE36
S3150800085C0023184680BD00BF0020024080B582B038
S3150800086C00AF7860124B1A68124B1B7819464FF476
S3150800087C7A73B3FBF1F3B2FBF3F3184600F0D9FD28
S3150800088C0346002B01D001230EE07B680F2B0AD8F8
S3150800089C002279684FF0FF3000F0A1FD064A7B680C
S315080008AC1360002300E0012318460837BD4680BDB7
S315080008BC00000020080000200400002080B400AFCF
S315080008CC054B1B781A46054B1B681344034A1360E1
S315080008DC00BFBD4680BC704708000020FC00002005
S315080008EC80B400AF024B1B681846BD4680BC7047E7
S315080008FCFC00002080B584B000AF7860FFF7F0FFED
S3150800090CB8607B68FB60FB68B3F1FF3F05D00A4B08
S3150800091C1B781A46FB681344FB6000BFFFF7E0FF21
S3150800092C0246BB68D31AFA689A42F7D800BF00BFCA
S3150800093C1037BD4680BD00BF0800002080B586B0C4
S3150800094C00AF78600023FB7500233B610023BB6076
S3150800095C0023FB607B68002B01D10123BEE07B687A
S3150800096C9B68002B7B689B6A002B09D17B6800224D
S3150800097CDA627B68002283F824207868FFF70EFE7B
S3150800098C786800F0FFFA0346FB757B689B6A03F0F0
S3150800099C1003002B40F09980FB7D002B40F09580CE
S315080009AC7B689B6A23F4885323F0020343F0020204
S315080009BC7B689A627B685A687B68DB691A437B6832
S315080009CC1B7B5B001343BA681343BB607B689B684D
S315080009DCB3F5807F03D07B689B68012B02D14FF45B
S315080009EC807300E000233A6913433B617B681B7DE7
S315080009FC012B19D17B681B7B002B09D17B689B6962
S31508000A0C013B5A033B69134343F400633B610BE018
S31508000A1C7B689B6A43F020027B689A627B68DB6A78
S31508000A2C43F001027B68DA627B681B685B6823F417
S31508000A3C69417B681B683A690A435A607B681B687C
S31508000A4C9A68284B13407A681268B9680B43936006
S31508000A5C7B689B68B3F5807F03D07B689B68012B0A
S31508000A6C04D17B681B69013B1B05FB607B681B6813
S31508000A7CDB6A23F470017B681B68FA680A43DA623E
S31508000A8C7B681B689A68184B1340BA689A420BD154
S31508000A9C7B680022DA627B689B6A23F0030343F0C7
S31508000AAC01027B689A6218E07B689B6A23F0120342
S31508000ABC43F010027B689A627B68DB6A43F001029A
S31508000ACC7B68DA620123FB7507E07B689B6A43F057
S31508000ADC10027B689A620123FB75FB7D1846183752
S31508000AECBD4680BDFDF7E1FFFE0E1FFF80B586B043
S31508000AFC00AFF860B9607A600023FB75FB681B6869
S31508000B0C644A934204D0FB681B68634A934206D135
S31508000B1C604B5B6803F47023002B40F0B380FB68D2
S31508000B2C93F82430012B01D10223AEE0FB68012295
S31508000B3C83F82420F86800F0CBF90346FB75FB7D97
S31508000B4C002B40F09A80FB689B6A23F4706323F0B1
S31508000B5C010343F48072FB689A62FB681B684E4A71
S31508000B6C934205D14B4B5B6803F47023002B15D1CC
S31508000B7CFB689B6A23F48012FB689A62FB681B6805
S31508000B8C5B6803F48063002B26D0FB689B6A23F40E
S31508000B9C405343F48052FB689A621DE0FB689B6ADB
S31508000BAC43F48012FB689A62FB681B68394A9342C5
S31508000BBC04D0FB681B68384A93420DD1354B5B68E9
S31508000BCC03F48063002B07D0FB689B6A23F440531D
S31508000BDC43F48052FB689A62FB689B6A03F4805361
S31508000BEC002B06D0FB68DB6A23F00602FB68DA6288
S31508000BFC02E0FB680022DA62FB68002283F82420F4
S31508000C0CFB681B6A254A9A62FB681B6A244ADA62E5
S31508000C1CFB681B6A234A1A63FB681B686FF002029F
S31508000C2C1A60FB681B689A68FB681B6842F480723A
S31508000C3C9A60FB68186AFB681B684C331946BA68D5
S31508000C4C7B6800F05DFCFB681B689B6803F46023FB
S31508000C5CB3F5602F08D1FB681B689A68FB681B689C
S31508000C6C42F4A0029A600FE0FB681B689A68FB685E
S31508000C7C1B6842F480129A6006E0FB68002283F82F
S31508000C8C242001E00123FB75FB7D18461837BD4669
S31508000C9C80BD00BF00240140002801401310000845
S31508000CAC8F100008AB10000880B483B000AF7860D2
S31508000CBC00BF0C37BD4680BC704780B483B000AF0C
S31508000CCC786000BF0C37BD4680BC704780B483B0D3
S31508000CDC00AF786000BF0C37BD4680BC704700007B
S31508000CEC80B485B000AF786039600023FB730023AD
S31508000CFCBB607B6893F82430012B01D10223DCE01E
S31508000D0C7B68012283F824203B685B68062B1CD879
S31508000D1C7B681B68596B3B685A6813469B001344DF
S31508000D2C053B1F2202FA03F3DB4319403B6818689C
S31508000D3C3B685A6813469B001344053B00FA03F2BA
S31508000D4C7B681B680A435A633CE03B685B680C2B60
S31508000D5C1CD87B681B68196B3B685A6813469B0042
S31508000D6C1344233B1F2202FA03F3DB4319403B6867
S31508000D7C18683B685A6813469B001344233B00FAD1
S31508000D8C03F27B681B680A431A631BE07B681B68C3
S31508000D9CD96A3B685A6813469B001344413B1F2289
S31508000DAC02FA03F3DB4319403B6818683B685A6838
S31508000DBC13469B001344413B00FA03F27B681B68FD
S31508000DCC0A43DA623B681B68092B1CD97B681B68CB
S31508000DDCD9683B681A6813465B0013441E3B072206
S31508000DEC02FA03F3DB4319403B6898683B681A68B8
S31508000DFC13465B0013441E3B00FA03F27B681B6820
S31508000E0C0A43DA6019E07B681B6819693B681A683B
S31508000E1C13465B001344072202FA03F3DB4319401B
S31508000E2C3B6898683B681A6813465B00134400FADB
S31508000E3C03F27B681B680A431A613B681B68102B14
S31508000E4C03D03B681B68112B32D17B681B681D4A83
S31508000E5C934225D17B681B689B6803F40003002B1F
S31508000E6C26D17B681B689A687B681B6842F400026B
S31508000E7C9A603B681B68102B1AD1134B1B68134AD4
S31508000E8CA2FB03239A0C13469B0013445B00BB601E
S31508000E9C02E0BB68013BBB60BB68002BF9D107E0DD
S31508000EAC7B689B6A43F020027B689A620123FB737A
S31508000EBC7B68002283F82420FB7B18461437BD4632
S31508000ECC80BC7047002401400000002083DE1B43D1
S31508000EDC80B584B000AF78600023FB600023BB604C
S31508000EEC7B681B689B6803F00103012B40D07B6869
S31508000EFC1B689A687B681B6842F001029A601F4B54
S31508000F0C1B681F4AA2FB03239B0CBB6002E0BB6851
S31508000F1C013BBB60BB68002BF9D1FFF7E1FCF8601D
S31508000F2C1FE0FFF7DDFC0246FB68D31A022B18D923
S31508000F3C7B681B689B6803F00103012B11D07B6847
S31508000F4C9B6A43F010027B689A627B68DB6A43F003
S31508000F5C01027B68DA627B68002283F8242001236D
S31508000F6C07E07B681B689B6803F00103012BD8D14B
S31508000F7C002318461037BD4680BD00BF0000002070
S31508000F8C83DE1B4380B584B000AF78600023FB601A
S31508000F9C7B681B689B6803F00103012B2ED17B68C9
S31508000FAC1B689A687B681B6822F001029A60FFF737
S31508000FBC97FCF8601BE0FFF793FC0246FB68D31A14
S31508000FCC022B14D97B681B689B6803F00103012B61
S31508000FDC0DD17B689B6A43F010027B689A627B682A
S31508000FECDB6A43F001027B68DA62012307E07B685F
S31508000FFC1B689B6803F00103012BDCD00023184601
S3150800100C1037BD4680BD80B584B000AF78607B686C
S3150800101C5B6AFB60FB689B6A03F05003002B27D1C5
S3150800102CFB689B6A43F40072FB689A62FB681B6850
S3150800103C9B6803F46023B3F5602F15D1FB681B7B03
S3150800104C002B11D1FB689B6A23F48072FB689A62A9
S3150800105CFB689B6A03F48053002B05D1FB689B6ADB
S3150800106C43F00102FB689A62F868FFF71DFE04E07C
S3150800107CFB681B6A1B6B7868984700BF1037BD4620
S3150800108C80BD80B584B000AF78607B685B6AFB6016
S3150800109CF868FFF712FE00BF1037BD4680BD80B555
S315080010AC84B000AF78607B685B6AFB60FB689B6A00
S315080010BC43F04002FB689A62FB68DB6A43F0040261
S315080010CCFB68DA62F868FFF701FE00BF1037BD4609
S315080010DC80BD000090B587B000AF78600023FB7523
S315080010EC0023FB607B6893F82430012B01D1022383
S315080010FC97E07B68012283F824207868FFF742FF83
S3150800110C0346FB757868FFF7E3FE0346FB75FB7D24
S3150800111C002B40F081807B689B6A23F4885323F06C
S3150800112C020343F002027B689A62404B1C68022059
S3150800113C01F0C8F90346B4FBF3F35B00FB6002E06D
S3150800114CFB68013BFB60FB68002BF9D17B681B68CD
S3150800115C9A687B681B6842F008029A60FFF7C0FB26
S3150800116C38611BE0FFF7BCFB02463B69D31A0A2B16
S3150800117C14D97B681B689B6803F00803002B0DD0F9
S3150800118C7B689B6A23F0120343F010027B689A6211
S3150800119C7B68002283F82420012342E07B681B68C5
S315080011AC9B6803F00803002BDCD17B681B689A68E4
S315080011BC7B681B6842F004029A60FFF791FB386162
S315080011CC1BE0FFF78DFB02463B69D31A0A2B14D991
S315080011DC7B681B689B6803F00403002B0DD07B68A7
S315080011EC9B6A23F0120343F010027B689A627B68B1
S315080011FC002283F82420012313E07B681B689B6874
S3150800120C03F00403002BDCD17B689B6A23F00303F1
S3150800121C43F001027B689A627B68002283F82420DB
S3150800122CFB7D18461C37BD4690BD00BF000000204C
S3150800123C80B485B000AF78607B6803F00703FB6069
S3150800124C0C4BDB68BB60BA684FF6FF031340BB60F8
S3150800125CFB681A02BB68134343F0BF6343F40033BD
S3150800126CBB60044ABB68D36000BF1437BD4680BC5C
S3150800127C704700BF00ED00E080B400AF044BDB689C
S3150800128C1B0A03F007031846BD4680BC704700BF0F
S3150800129C00ED00E080B483B000AF0346FB7197F90C
S315080012AC0730002B0BDBFB7903F01F02064997F975
S315080012BC07305B09012000FA02F241F8232000BF2F
S315080012CC0C37BD4680BC704700E100E080B483B0A3
S315080012DC00AF03463960FB7197F90730002B0ADB20
S315080012EC3B68DAB20C4997F907301201D2B20B44B3
S315080012FC83F800230AE03B68DAB20849FB7903F065
S3150800130C0F03043B1201D2B20B441A7600BF0C37FA
S3150800131CBD4680BC704700BF00E100E000ED00E070
S3150800132C80B489B000AFF860B9607A60FB6803F0E6
S3150800133C0703FB61FB69C3F10703042B28BF0423CE
S3150800134CBB61FB690433062B02D9FB69033B00E03E
S3150800135C00237B614FF0FF32BB6902FA03F3DA43D1
S3150800136CBB681A407B699A404FF0FF317B6901FADA
S3150800137C03F3D9437B680B40134318462437BD4601
S3150800138C80BC704780B582B000AF78607B68013B43
S3150800139CB3F1807F01D301230FE00A4A7B68013B36
S315080013AC53600F214FF0FF30FFF790FF054B0022DB
S315080013BC9A60044B07221A60002318460837BD4664
S315080013CC80BD00BF10E000E080B582B000AF786049
S315080013DC7868FFF72DFF00BF0837BD4680BD80B57E
S315080013EC86B000AF0346B9607A60FB7300237B6155
S315080013FCFFF742FF78617A68B9687869FFF790FF5A
S3150800140C024697F90F3011461846FFF75FFF00BFE3
S3150800141C1837BD4680BD80B582B000AF0346FB7158
S3150800142C97F907301846FFF735FF00BF0837BD4652
S3150800143C80BD80B582B000AF78607868FFF7A2FFF0
S3150800144C034618460837BD4680BD000080B485B0F3
S3150800145C00AF78600023FB607B68002B01D1012369
S3150800146C43E07B681B681A46224B1344224AA2FBAC
S3150800147C03231B099A007B681A647B681F4ADA6384
S3150800148C7B68022283F821207B681B681B68FB603B
S3150800149CFB6823F47F5323F03003FB607B685A68A0
S315080014AC7B689B681A437B68DB681A437B681B69F5
S315080014BC1A437B685B691A437B689B691A437B688A
S315080014CCDB691343FA681343FB607B681B68FA688D
S315080014DC1A607B6800229A637B68012283F82120B4
S315080014EC7B68002283F82020002318461437BD4653
S315080014FC80BC7047F8FFFDBFCDCCCCCC00000240B9
S3150800150C80B586B000AFF860B9607A603B6000239E
S3150800151CFB75FB6893F82030012B01D102234BE0B5
S3150800152CFB68012283F82020FB6893F82130DBB294
S3150800153C012B3AD1FB68022283F82120FB68002292
S3150800154C9A63FB681B681A68FB681B6822F0010221
S3150800155C1A603B687A68B968F86800F037F9FB686E
S3150800156CDB6A002B08D0FB681B681A68FB681B68CB
S3150800157C42F00E021A600FE0FB681B681A68FB68DB
S3150800158C1B6822F004021A60FB681B681A68FB6861
S3150800159C1B6842F00A021A60FB681B681A68FB682B
S315080015AC1B6842F001021A6005E0FB68002283F80A
S315080015BC20200223FB75FB7D18461837BD4680BDD7
S315080015CC80B584B000AF78607B68DB6B1B68FB600A
S315080015DC7B681B681B68BB607B681B6C04229A4083
S315080015ECFB681340002B4FD0BB6803F00403002B99
S315080015FC4AD07B681B681B6803F02003002B07D1B5
S3150800160C7B681B681A687B681B6822F004021A60E0
S3150800161C7B681B68664A934229D07B681B68654AB7
S3150800162C934222D07B681B68634A93421AD07B6824
S3150800163C1B68624A934212D07B681B68604A9342C5
S3150800164C0AD07B681B685F4A934202D14FF4800329
S3150800165C0EE04FF080630BE04FF4802308E04FF464
S3150800166C804305E04FF4806302E0402300E0042346
S3150800167C554A53607B68DB6A002B00F094807B68C4
S3150800168CDB6A786898478EE07B681B6C02229A4066
S3150800169CFB681340002B56D0BB6803F00203002BE3
S315080016AC51D07B681B681B6803F02003002B0BD1F9
S315080016BC7B681B681A687B681B6822F00A021A602A
S315080016CC7B68012283F821207B681B68384A934281
S315080016DC29D07B681B68374A934222D07B681B68E3
S315080016EC354A93421AD07B681B68344A934212D007
S315080016FC7B681B68324A93420AD07B681B68314A5E
S3150800170C934202D14FF400130EE04FF000730BE036
S3150800171C4FF4003308E04FF4005305E04FF4007320
S3150800172C02E0202300E00223274A53607B6800224C
S3150800173C83F820207B689B6A002B34D07B689B6AD5
S3150800174C786898472FE07B681B6C08229A40FB68E0
S3150800175C1340002B28D0BB6803F00803002B23D0BA
S3150800176C7B681B681A687B681B6822F00E021A6075
S3150800177C7B681A6C7B68DB6B012101FA02F25A60F2
S3150800178C7B6801229A637B68012283F821207B6897
S3150800179C002283F820207B681B6B002B04D07B6807
S315080017AC1B6B7868984700BF00BF1037BD4680BDD5
S315080017BC080002401C00024030000240440002406F
S315080017CC580002406C0002400000024080B485B00C
S315080017DC00AFF860B9607A603B60FB681A6CFB680E
S315080017ECDB6B012101FA02F25A60FB681B683A6846
S315080017FC5A60FB685B68102B08D1FB681B687A6813
S3150800180C9A60FB681B68BA68DA6007E0FB681B68B5
S3150800181CBA689A60FB681B687A68DA6000BF143786
S3150800182CBD4680BC7047000080B48BB000AF7860B2
S3150800183C396000237B6200233B6269E101227B6AE3
S3150800184C02FA03F3FB613B681B68FA691340BB6138
S3150800185CBA69FB699A4240F058813B685B689A4AB8
S3150800186C93425ED0984A934275D8984A934258D078
S3150800187C964A93426FD8964A934252D0944A9342C8
S3150800188C69D8944A93424CD0924A934263D8924A66
S3150800189C934246D0904A93425DD8122B2AD8122BE3
S315080018AC59D801A252F823F02F1900080919000873
S315080018BC1B1900085D19000863190008631900084C
S315080018CC63190008631900086319000863190008EE
S315080018DC63190008631900086319000863190008DE
S315080018EC6319000863190008631900081119000820
S315080018FC25190008794A934213D02CE03B68DB681B
S3150800190C3B6229E03B68DB6804333B6224E03B68B6
S3150800191CDB6808333B621FE03B68DB680C333B62D1
S3150800192C1AE03B689B68002B02D104233B6213E048
S3150800193C3B689B68012B05D108233B627B68FA69D7
S3150800194C1A6109E008233B627B68FA695A6103E06D
S3150800195C00233B6200E000BFBB69FF2B01D87B6804
S3150800196C01E07B6804337B61BB69FF2B02D87B6A79
S3150800197C9B0002E07B6A083B9B003B617B691A680B
S3150800198C0F213B6901FA03F3DB431A40396A3B69B9
S3150800199C01FA03F31A437B691A603B685B6803F028
S315080019AC8053002B00F0B1804D4B9B694C4A43F099
S315080019BC010393614A4B9B6903F00103BB60BB6847
S315080019CC484A7B6A9B08023352F82330FB607B6AD1
S315080019DC03F003039B000F2202FA03F3DB43FA68B6
S315080019EC1340FB607B68404A934213D07B683F4A9E
S315080019FC93420DD07B683E4A934207D07B683D4A9A
S31508001A0C934201D1032306E0042304E0022302E0F7
S31508001A1C012300E000237A6A02F003029200934045
S31508001A2CFA681343FB602F497B6A9B080233FA68F2
S31508001A3C41F823203B685B6803F48013002B06D01F
S31508001A4C2D4B9A682C49BB6913438B6006E02A4BCD
S31508001A5C9A68BB69DB43284913408B603B685B6813
S31508001A6C03F40013002B06D0234BDA682249BB6912
S31508001A7C1343CB6006E0204BDA68BB69DB431E498F
S31508001A8C1340CB603B685B6803F40033002B06D02D
S31508001A9C194B5A681849BB6913434B6006E0164B39
S31508001AAC5A68BB69DB43144913404B603B685B6857
S31508001ABC03F48033002B21D00F4B1A680E49BB69EF
S31508001ACC13430B6021E000BF0000321000003110F8
S31508001ADC0000221000002110000012100000111046
S31508001AEC001002400000014000080140000C0140B3
S31508001AFC0010014000140140000401400B4B1A6809
S31508001B0CBB69DB43094913400B607B6A01337B6273
S31508001B1C3B681A687B6A22FA03F3002B7FF48EAEB5
S31508001B2C00BF00BF2C37BD4680BC7047000401407F
S31508001B3C80B483B000AF78600B467B8013467B700D
S31508001B4C7B78002B03D07A887B681A6103E07B8844
S31508001B5C1A047B681A6100BF0C37BD4680BC7047F7
S31508001B6C80B586B000AF78607B68002B01D1012365
S31508001B7C72E27B681B6803F00103002B00F0878078
S31508001B8C924B5B6803F00C03042B0CD08F4B5B68F1
S31508001B9C03F00C03082B12D18C4B5B6803F48033CF
S31508001BACB3F5803F0BD1894B1B6803F40033002B2C
S31508001BBC6CD07B685B68002B68D101234CE27B6890
S31508001BCC5B68B3F5803F06D1804B1B687F4A43F4AC
S31508001BDC803313602EE07B685B68002B0CD17B4B43
S31508001BEC1B687A4A23F480331360784B1B68774A50
S31508001BFC23F4802313601DE07B685B68B3F5A02F84
S31508001C0C0CD1724B1B68714A43F4802313606F4BDB
S31508001C1C1B686E4A43F4803313600BE06B4B1B68EE
S31508001C2C6A4A23F480331360684B1B68674A23F4AB
S31508001C3C802313607B685B68002B13D0FEF750FE7D
S31508001C4C386108E0FEF74CFE02463B69D31A642B52
S31508001C5C01D9032300E25D4B1B6803F40033002B08
S31508001C6CF0D014E0FEF73CFE386108E0FEF738FECB
S31508001C7C02463B69D31A642B01D90323ECE1534B77
S31508001C8C1B6803F40033002BF0D100E000BF7B681F
S31508001C9C1B6803F00203002B63D04C4B5B6803F004
S31508001CAC0C03002B0BD0494B5B6803F00C03082B79
S31508001CBC1CD1464B5B6803F48033002B16D1434B7F
S31508001CCC1B6803F00203002B05D07B681B69012BEC
S31508001CDC01D00123C0E13D4B1B6823F0F8027B6859
S31508001CEC5B69DB00394913430B603AE07B681B6977
S31508001CFC002B20D0364B01221A60FEF7F1FD386115
S31508001D0C08E0FEF7EDFD02463B69D31A022B01D912
S31508001D1C0323A1E12D4B1B6803F00203002BF0D023
S31508001D2C2A4B1B6823F0F8027B685B69DB002749A2
S31508001D3C13430B6015E0264B00221A60FEF7D0FD04
S31508001D4C386108E0FEF7CCFD02463B69D31A022B34
S31508001D5C01D9032380E11D4B1B6803F00203002BFA
S31508001D6CF0D17B681B6803F00803002B3AD07B681C
S31508001D7C9B69002B19D0174B01221A60FEF7B0FD90
S31508001D8C386108E0FEF7ACFD02463B69D31A022B14
S31508001D9C01D9032360E10D4B5B6A03F00203002BA8
S31508001DACF0D0012000F0BAFA1CE00A4B00221A60A7
S31508001DBCFEF796FD38610FE0FEF792FD02463B6989
S31508001DCCD31A022B08D9032346E100BF00100240A0
S31508001DDC0000424280044242924B5B6A03F00203C3
S31508001DEC002BE9D17B681B6803F00403002B00F079
S31508001DFCA6800023FB758B4BDB6903F08053002B05
S31508001E0C0DD1884BDB69874A43F08053D361854BE8
S31508001E1CDB6903F08053BB60BB680123FB75824BFF
S31508001E2C1B6803F48073002B18D17F4B1B687E4A02
S31508001E3C43F480731360FEF753FD386108E0FEF730
S31508001E4C4FFD02463B69D31A642B01D9032303E1E0
S31508001E5C754B1B6803F48073002BF0D07B68DB682A
S31508001E6C012B06D16F4B1B6A6E4A43F001031362B2
S31508001E7C2DE07B68DB68002B0CD16A4B1B6A694A20
S31508001E8C23F001031362674B1B6A664A23F00403AB
S31508001E9C13621CE07B68DB68052B0CD1614B1B6A53
S31508001EAC604A43F0040313625E4B1B6A5D4A43F0B7
S31508001EBC010313620BE05B4B1B6A5A4A23F00103BE
S31508001ECC1362584B1B6A574A23F0040313627B6848
S31508001EDCDB68002B15D0FEF703FD38610AE0FEF728
S31508001EECFFFC02463B69D31A41F28832934201D968
S31508001EFC0323B1E04B4B1B6A03F00203002BEED015
S31508001F0C14E0FEF7EDFC38610AE0FEF7E9FC024640
S31508001F1C3B69D31A41F28832934201D903239BE0D9
S31508001F2C404B1B6A03F00203002BEED1FB7D012B01
S31508001F3C05D13C4BDB693B4A23F08053D3617B6864
S31508001F4CDB69002B00F08780364B5B6803F00C03CB
S31508001F5C082B61D07B68DB69022B46D1334B0022F8
S31508001F6C1A60FEF7BDFC386108E0FEF7B9FC0246BC
S31508001F7C3B69D31A022B01D903236DE0294B1B6845
S31508001F8C03F00073002BF0D17B681B6AB3F5803F16
S31508001F9C08D1244B5B6823F400327B689B68214983
S31508001FAC13434B601F4B5B6823F474127B68196AE6
S31508001FBC7B685B6A0B431B4913434B601B4B012223
S31508001FCC1A60FEF78DFC386108E0FEF789FC0246BC
S31508001FDC3B69D31A022B01D903233DE0114B1B682D
S31508001FEC03F00073002BF0D035E0104B00221A607A
S31508001FFCFEF776FC386108E0FEF772FC02463B6990
S3150800200CD31A022B01D9032326E0064B1B6803F0CF
S3150800201C0073002BF0D11EE07B68DB69012B07D11E
S3150800202C012319E000100240007000406000424293
S3150800203C0B4B5B68FB60FB6803F480327B681B6A9E
S3150800204C9A4206D1FB6803F470127B685B6A9A4263
S3150800205C01D0012300E0002318461837BD4680BD81
S3150800206C0010024080B584B000AF786039607B6898
S3150800207C002B01D10123D0E06A4B1B6803F0070340
S3150800208C3A689A4210D9674B1B6823F007026549D0
S3150800209C3B6813430B60634B1B6803F007033A68F2
S315080020AC9A4201D00123B8E07B681B6803F002034F
S315080020BC002B20D07B681B6803F00403002B05D08B
S315080020CC594B5B68584A43F4E06353607B681B685A
S315080020DC03F00803002B05D0534B5B68524A43F4B4
S315080020EC60535360504B5B6823F0F0027B689B6827
S315080020FC4D4913434B607B681B6803F00103002BA7
S3150800210C40D07B685B68012B07D1474B1B6803F4EF
S3150800211C0033002B15D101237FE07B685B68022B0B
S3150800212C07D1414B1B6803F00073002B09D101231F
S3150800213C73E03D4B1B6803F00203002B01D101230E
S3150800214C6BE0394B5B6823F003027B685B683649A6
S3150800215C13434B60FEF7C4FBF8600AE0FEF7C0FBBE
S3150800216C0246FB68D31A41F28832934201D90323FB
S3150800217C53E02D4B5B6803F00C027B685B689B0095
S3150800218C9A42EBD1274B1B6803F007033A689A422D
S3150800219C10D2244B1B6823F0070222493B681343D1
S315080021AC0B60204B1B6803F007033A689A4201D070
S315080021BC012332E07B681B6803F00403002B08D06C
S315080021CC194B5B6823F4E0627B68DB68164913439A
S315080021DC4B607B681B6803F00803002B09D0124B75
S315080021EC5B6823F460527B681B69DB000E4913435A
S315080021FC4B6000F021F802460B4B5B681B0903F099
S3150800220C0F030A49CB5C22FA03F3094A1360094BFC
S3150800221C1B681846FEF722FB002318461037BD46E6
S3150800222C80BD00BF00200240001002401C3600088A
S3150800223C000000200400002080B487B000AF002303
S3150800224CFB600023BB6000237B6100237B600023BB
S3150800225C3B611E4B5B68FB60FB6803F00C03042BAD
S3150800226C02D0082B03D027E0194B3B6127E0FB680B
S3150800227C9B0C03F00F03174AD35C7B60FB6803F4D3
S3150800228C8033002B10D0114B5B685B0C03F00103F9
S3150800229C114AD35CBB607B680D4A03FB02F2BB6830
S315080022ACB2FBF3F37B6104E07B680C4A02FB03F395
S315080022BC7B617B693B6102E0054B3B6100BF3B6977
S315080022CC18461C37BD4680BC704700BF001002403C
S315080022DC00127A00343600084436000800093D001E
S315080022EC80B400AF024B1B681846BD4680BC7047CD
S315080022FC0000002080B500AFFFF7F2FF0246054B41
S3150800230C5B68DB0A03F007030349CB5C22FA03F389
S3150800231C184680BD001002402C36000880B485B0E3
S3150800232C00AF78600A4B1B680A4AA2FB03235B0AB8
S3150800233C7A6802FB03F3FB6000BFFB685A1EFA605F
S3150800234C002BF9D100BF00BF1437BD4680BC7047BF
S3150800235C00000020D34D621080B586B000AF7860BF
S3150800236C00233B610023FB607B681B6803F00103B9
S3150800237C002B7DD00023FB754F4BDB6903F0805394
S3150800238C002B0DD14C4BDB694B4A43F08053D36180
S3150800239C494BDB6903F08053BB60BB680123FB75B3
S315080023AC464B1B6803F48073002B18D1434B1B68F0
S315080023BC424A43F480731360FEF792FA386108E0D8
S315080023CCFEF78EFA02463B69D31A642B01D903230E
S315080023DC6DE03A4B1B6803F48073002BF0D0364B38
S315080023EC1B6A03F44073FB60FB68002B2ED07B68DA
S315080023FC5B6803F44073FA689A4227D02E4B1B6A23
S3150800240C23F44073FB602E4B01221A602C4B0022DE
S3150800241C1A60294AFB681362FB6803F00103002B58
S3150800242C14D0FEF75DFA38610AE0FEF759FA02464F
S3150800243C3B69D31A41F28832934201D9032336E019
S3150800244C1D4B1B6A03F00203002BEED01A4B1B6ABA
S3150800245C23F440727B685B68174913430B62FB7D58
S3150800246C012B05D1144BDB69134A23F08053D36136
S3150800247C7B681B6803F00203002B08D00E4B5B68C5
S3150800248C23F440427B689B680B4913434B607B687B
S3150800249C1B6803F01003002B08D0074B5B6823F46A
S315080024AC80027B68DB68044913434B60002318469B
S315080024BC1837BD4680BD00BF0010024000700040B2
S315080024CC4004424280B588B000AF786000237B6137
S315080024DC0023FB6100233B610023FB600023BB61E7
S315080024EC7B68102B0AD07B68102B00F28A807B68DD
S315080024FC012B45D07B68022B75D082E0464B5B6876
S3150800250CFB60454B1B6803F08073002B7BD0FB6884
S3150800251C9B0C03F00F03414AD35C3B61FB6803F445
S3150800252C8033002B15D03C4B5B685B0C03F0010326
S3150800253C3B4AD35C7B61FB6803F48033002B0DD0DC
S3150800254C384A7B69B2FBF3F23B6902FB03F3FB6186
S3150800255C04E03B69344A02FB03F3FB612E4B5B68D0
S3150800256C03F48003B3F5800F02D1FB69BB614AE023
S3150800257CFB695B002D4AA2FB03235B08BB6142E0A7
S3150800258C254B1B6AFB60FB6803F44073B3F5807F2D
S3150800259C08D1FB6803F00203002B03D04FF4004369
S315080025ACBB611FE0FB6803F44073B3F5007F09D1E8
S315080025BC194B5B6A03F00203002B03D049F6404320
S315080025CCBB610FE0FB6803F44073B3F5407F1CD185
S315080025DC114B1B6803F40033002B16D04FF224431F
S315080025ECBB6112E011E0FFF785FE02460A4B5B68F9
S315080025FC9B0B03F0030301335B00B2FBF3F3BB61E4
S3150800260C04E000BF02E000BF00E000BFBB6918464B
S3150800261C2037BD4680BD00BF001002404836000872
S3150800262C5836000800127A0000093D00ABAAAAAA7F
S3150800263C80B584B000AFF860B9607A603B601C491D
S3150800264C3868FDF7C1FD0346002B03D0FB68194A11
S3150800265C9A6002E0FB683A689A601549B869FDF712
S3150800266CB3FD0346002B03D0FB68134ADA6002E07D
S3150800267CFB68BA69DA60FB68BA681A60FB687A683C
S3150800268C5A60FB6800221A61FB6800225A61FB68D3
S3150800269C1B681846FEF71EFDFB681868FB681033A6
S315080026AC01221946FEF722FA00BF1037BD4680BD37
S315080026BC000080BF000020418F429942002310B5CC
S315080026CC0446C0E90033C0E904338360818143665C
S315080026DCC2818361194608225C3000F0E5F9054B86
S315080026EC24626362044BA362044BE362044B2363C8
S315080026FC10BD00BF05290008272900085F29000816
S3150800270C83290008024A0349034800F069B800BF48
S3150800271C0C000020413400081800002041680C4BBE
S3150800272C10B59942044601D000F084FEA168094B05
S3150800273C994202D0204600F07DFEE168064B99428C
S3150800274C04D02046BDE8104000F074BE10BD00BF92
S3150800275C0001002068010020D001002010B50B4BA9
S3150800276C0B4C0C4A20461A6004210022FFF7A6FFE0
S3150800277C04F1680001220921FFF7A0FF04F1D0003B
S3150800278C0222BDE810401221FFF798BF380200203C
S3150800279C0001002011270008014800F0FDB900BF10
S315080027AC41020020014800F0F8B900BF41020020A0
S315080027BC10B50446FFF7F0FF236A1BB1BDE81040BD
S315080027CCFFF7F0BF044B2362044B1B68002BF5D1B3
S315080027DCFFF7C4FFF2E700BF2927000838020020DC
S315080027EC2DE9F8430746884614460026D4E9019590
S315080027FCB9F1010905D52468002CF7D13046BDE896
S3150800280CF883AB89012B07D9B5F90E30013303D000
S3150800281C29463846C04706436835E9E70FB407B575
S3150800282C064904AB086853F8042B8168019300F039
S3150800283CD1FA03B05DF804EB04B0704764000020CD
S3150800284C036A70B505460E4684680BB9FFF7B0FFE8
S3150800285C636EDB0705D4A389980502D4A06D00F036
S3150800286C9BF9A389190713D523698BB1013EA36874
S3150800287C16F8011F013BA360E9B9002B2EDA224694
S3150800288C0A21284600F07BF8013007D00A2507E014
S3150800289C2146284600F0B0F80028E7D04FF0FF355F
S315080028AC636EDA0705D4A3899B0502D4A06D00F0E4
S315080028BC74F9284670BD002B04DAA2699A4206DC24
S315080028CC0A2904D023685A1C22601970CFE72246BD
S315080028DC284600F054F80130C9D1DFE70A252368E9
S315080028EC5A1C22601D70DBE7024B01461868FFF77D
S315080028FCA7BF00BF6400002010B50C46B1F90E1036
S3150800290C00F0FCF80028ABBF636DA3891B1823F4F1
S3150800291C8053ACBF6365A38110BD2DE9F0411F46FA
S3150800292C8B890546DB050C46164605D5022300227F
S3150800293CB1F90E1000F0D0F8A389324623F480536F
S3150800294CA38128463B46B4F90E10BDE8F04100F0C9
S3150800295CE7B810B50C46B1F90E1000F0BDF8431CDB
S3150800296CA38915BF606523F4805343F48053A38170
S3150800297C18BFA38110BDB1F90E1000F09DB8F8B5BB
S3150800298C0E461446054618B1036A0BB9FFF710FF35
S3150800299CA369A360A3891A0725D523691BB32368E2
S315080029AC2269F6B2981A63693746834204DC2146D3
S315080029BC284600F03FFDE0B9A368013BA3602368F5
S315080029CC5A1C22601E706269431C9A4204D0A38961
S315080029DCDB0706D50A2E04D12146284600F02AFD27
S315080029EC38B93846F8BD2146284600F005F80028BF
S315080029FCD5D04FF0FF37F4E738B52A4B054618689B
S31508002A0C0C4618B1036A0BB9FFF7D2FEA389B4F9C1
S31508002A1C0C20180722D4D90607D409232B6042F0B8
S31508002A2C40034FF0FF30A38134E0580712D5616B91
S31508002A3C41B104F14403994202D0284600F0AEF89D
S31508002A4C00236363A38923F02403A3810023636013
S31508002A5C23692360A38943F00803A38123694BB92F
S31508002A6CA38903F42073B3F5007F03D021462846C7
S31508002A7C00F02DFDA089B4F90C2010F001030AD042
S31508002A8C0023A36063695B42A361236943B910F011
S31508002A9C8000C4D138BD810758BF6369A360F4E7C9
S31508002AAC0020F7E76400002003460244934200D155
S31508002ABC704703F8011BF9E738B50023054D0446A2
S31508002ACC08462B60FDF721FE431C02D12B6803B187
S31508002ADC236038BD3C02002038B50446084611462A
S31508002AEC0022054D2A601A46FDF733FE431C02D117
S31508002AFC2B6803B1236038BD3C02002038B5044668
S31508002B0C084611460022054D2A601A46FDF7E0FDD7
S31508002B1C431C02D12B6803B1236038BD3C0200204C
S31508002B2C38B50446084611460022054D2A601A4651
S31508002B3CFDF7A2FB431C02D12B6803B1236038BDF9
S31508002B4C3C020020014B1868704700BF6400002047
S31508002B5C70B500260C4D0D4C641BA410A64209D169
S31508002B6C00F032FD00260A4D0A4C641BA410A6423E
S31508002B7C05D170BD55F8043B98470136EEE755F874
S31508002B8C043B98470136F2E7903600089036000861
S31508002B9C90360008943600087047704738B50546D5
S31508002BAC002940D051F8043C0C1F002BB8BFE41880
S31508002BBC00F0DCF81C4A136833B9636014602846C5
S31508002BCCBDE8384000F0D8B8A34208D920682118C7
S31508002BDC8B4201BF19685B6809182160EDE71A4634
S31508002BEC5B680BB1A342FAD911685018A0420BD1F5
S31508002BFC20680144501883421160E0D118685B685C
S31508002C0C084410605360DAE702D90C232B60D6E728
S31508002C1C206821188B4201BF19685B680918216066
S31508002C2C63605460CBE738BD4402002070B50E4E85
S31508002C3C0C463168054611B900F0A8FC30602146EF
S31508002C4C284600F0A3FC431C0AD0C41C24F0030439
S31508002C5CA04207D0211A284600F098FC013001D171
S31508002C6C4FF0FF34204670BD480200202DE9F8438A
S31508002C7CCD1C25F0030508350C2D38BF0C25002D69
S31508002C8C074601DBA94205D90C2300263B603046D2
S31508002C9CBDE8F883DFF8D08000F068F8D8F8003083
S31508002CAC1C465CBB29463846FFF7C0FF431C044646
S31508002CBC55D1D8F800402646002E45D1002C48D0D0
S31508002CCC23683146384604EB030900F05FFC81455E
S31508002CDC3FD1216838466D1A2946FFF7A7FF013000
S31508002CEC37D023682B442360D8F80030002B38D013
S31508002CFC5A68A2422BD100225A600FE02268521B56
S31508002D0C1FD40B2A17D96119A342256018BF59601D
S31508002D1C636808BFC8F8001062514B60384604F166
S31508002D2C0B0600F029F826F00706231DF21AAED07A
S31508002D3C9B1BA350ABE7A3426268DDD1C8F8002001
S31508002D4CECE723466468ACE734467668B4E7134682
S31508002D5CCCE70C2338463B6000F00EF897E7256065
S31508002D6CDCE75B60FFDE00BF440200200148FFF78A
S31508002D7C13BF00BF400200200148FFF70EBF00BF7B
S31508002D8C40020020936810B4013B002B936007DACD
S31508002D9C9469A34201DB0A2902D110BCFFF7EFBDE7
S31508002DAC1368581C10601970084610BC7047F8B5A3
S31508002DBC06460F461446D518AC4201D1002007E04A
S31508002DCC3A46304614F8011BFFF7DCFF431CF3D1D7
S31508002DDCF8BD00002DE9F04F0D46144698460646F8
S31508002DEC9DB018B1036A0BB9FFF7E2FC6B6ED907F5
S31508002DFC05D4AB899A0502D4A86DFFF7CDFEAB892D
S31508002E0C1B0701D52B699BB929463046FFF7F4FDFC
S31508002E1C70B16B6EDC0704D54FF0FF301DB0BDE802
S31508002E2CF08FAB899805F7D4A86DFFF7B6FEF3E7D4
S31508002E3C0023099320238DF8293030234FF00109FC
S31508002E4CCDF80C80DFF8AC818DF82A3023469A46EB
S31508002E5C13F8012B0AB1252AF9D1BAEB040B0BD0BE
S31508002E6C5B46224629463046FFF7A1FF013000F0A3
S31508002E7CA980099A5A4409929AF80030002B00F056
S31508002E8CA18000234FF0FF32CDE905230AF1010A90
S31508002E9C049307938DF853301A935446052214F865
S31508002EAC011B544800F082FB049AD8B9D10644BFDA
S31508002EBC20238DF85330130744BF2B238DF853303A
S31508002ECC9AF800302A2B15D0544600204FF00A0CDD
S31508002EDC079A214611F8013B303B092B4DD9B0B165
S31508002EEC079214E0A0EB080309FA03F31343A2466E
S31508002EFC0493D2E7039B191D1B680391002BBBBFD8
S31508002F0C5B4242F0020207930793B8BF04922378F8
S31508002F1C2E2B0CD163782A2B34D1039B02341A1D21
S31508002F2C1B680392002BB8BF4FF0FF330593DFF8ED
S31508002F3CC8A003225046217800F038FB38B140224D
S31508002F4C049BA0EB0A00824013430134049314F843
S31508002F5C011B062229488DF8281000F027FB0028AB
S31508002F6C3FD0274B1BBB039B073323F007030833C0
S31508002F7C0393099B3B44099368E70C4601200CFB19
S31508002F8C0232A6E700234FF00A0C194601340593C2
S31508002F9C204610F8012B303A092A03D9002BC6D043
S31508002FAC0591C4E7044601230CFB0121F0E703ABAA
S31508002FBC00932A463046134B04A9AFF30080074604
S31508002FCC781CD6D16B6ED90705D4AB899A0502D471
S31508002FDCA86DFFF7E2FDAB895B063FF51DAF0998B7
S31508002FEC1CE703AB00932A463046064B04A900F0AF
S31508002FFC7DF8E4E75A36000860360008643600089F
S3150800300C00000000BB2D00082DE9F047164699462E
S3150800301C8A680B6907469342B8BF1346336091F822
S3150800302C43200C46DDF820800AB10133336023684F
S3150800303C990642BF336802333360256815F00605D6
S3150800304C06D104F1190AE36832689B1AAB422BDCE9
S3150800305C94F84320131E226818BF0123920630D415
S3150800306C4946384604F14302C047013023D0236849
S3150800307C226903F00603042B14BF002533684FF0AE
S3150800308C000608BFE56804F11A0408BFED1A54F8DF
S3150800309C123C08BF25EAE5759342C4BF9B1AED1886
S315080030ACB5421AD1002008E0012352464946384653
S315080030BCC047013003D14FF0FF30BDE8F08701352A
S315080030CCC1E73020E11881F843005A1C94F84510E2
S315080030DC2244023382F84310C2E7012322464946AA
S315080030EC3846C0470130E6D00136D9E72DE9FF4707
S315080030FC0F7E9146782F80460C469A460C9D01F118
S3150800310C430207D8622F0AD8002F00F0D580582F13
S3150800311C00F0C18004F1420584F842703AE0A7F148
S3150800312C6303152BF6D801A151F823F09131000849
S3150800313CA531000821310008213100082131000889
S3150800314C21310008A5310008213100082131000879
S3150800315C2131000821310008AB320008D1310008B2
S3150800316C653200082131000821310008CD320008EB
S3150800317C21310008D131000821310008213100081D
S3150800318C6D3200082B681A1D1B682A6004F142056B
S3150800319C84F842300123A0E020682B68070603F167
S315080031AC0401296001D51E6803E04606FBD5B3F970
S315080031BC0060002E03DA2D23764284F843300A2366
S315080031CC594812E02B682068191D2960050601D597
S315080031DC1E6802E04106FBD51E886F2F0CBF08231C
S315080031EC0A235148002184F843106568002DA8BFAE
S315080031FC2168A560A4BF21F0040121600EB9002D39
S3150800320C4BD01546B6FBF3F103FB1167C75D05F802
S3150800321C017D3746BB420E46F4D9082B0BD12368E1
S3150800322CDE0708D5236961689942DEBF302305F8A5
S3150800323C013C05F1FF35521B22614B46214640469F
S3150800324CCDF800A003AAFFF7DFFE01304AD14FF0F4
S3150800325CFF3004B0BDE8F087236843F020032360F1
S3150800326C7827324884F84570236829681F0651F870
S3150800327C046B02D45F0648BFB6B2DF0748BF43F0FB
S3150800328C2003296048BF23601EB9236823F0200356
S3150800329C23601023A6E72448E4E71546BDE72B6808
S315080032AC2668181D6169286035061B6801D51960E2
S315080032BC02E07006FBD51980002315462361BCE78E
S315080032CC2B6800211A1D2A601D686268284600F0C2
S315080032DC6DF908B1401B606063682361002384F8AC
S315080032EC4330AAE72A46494640462369D047013067
S315080032FCADD023689B0713D4E068039B9842B8BFEC
S3150800330C1846A6E70123324649464046D0470130BF
S3150800331C9DD00135E36803995B1AAB42F2DCEBE707
S3150800332C002504F11906F5E76B3600087C3600080B
S3150800333C8A89F8B5054610070C4657D44B68002BF6
S3150800334C04DC0B6C002B01DC0020F8BDE66A002EB1
S3150800335CFAD0002312F480522F68216A2B6032D0DF
S3150800336C606DA3895A0705D56368C01A636B0BB1E0
S3150800337C236CC01A00230246E66A2846216AB0471F
S3150800338C431CA38906D129681D292BD8284A0A412A
S3150800339CD60727D4002262602269D904226004D594
S315080033AC421C01D12B6803B96065616B2F6000293B
S315080033BCCAD004F14403994202D02846FFF7EEFB23
S315080033CC00206063C1E701232846B047411CC8D1D9
S315080033DC2B68002BC5D01D2B01D0162B01D12F60C5
S315080033ECB2E7A38943F04003A381AEE70F69002F28
S315080033FCAAD0930718BF00230E6808BF4B69F61BA3
S3150800340C0F608B60002E9FDD33463A462846216AAC
S3150800341CD4F828C0E047002806DCA3894FF0FF3013
S3150800342C43F04003A38190E70744361AEAE700BF46
S3150800343CFEFFBFDF38B50B6905460C4613B90025E8
S3150800344C284638BD18B1036A0BB9FFF7B1F9B4F9B8
S3150800345C0C30002BF3D0626ED00704D4990502D435
S3150800346CA06DFFF799FB28462146FFF761FF636EAF
S3150800347C0546DA07E4D4A3899B05E1D4A06DFFF7CA
S3150800348C8CFBDDE770B50C46B1F90E101546002914
S3150800349C1E4696B00CDAA389002113F0800F0CBFD8
S315080034AC4FF480634023002031602B6016B070BD4A
S315080034BC6A4600F049F80028EDDB019901F47041E1
S315080034CCA1F50053594259414FF48063EBE78B89B8
S315080034DC73B59D0706460C4607D504F147032360CA
S315080034EC23610123636102B070BD6A4601ABFFF725
S315080034FCC9FF009905463046FFF7B8FB48B9B4F939
S3150800350C0C309A05EFD423F0030343F00203A3818E
S3150800351CE3E7A389206043F08003A381009B206125
S3150800352C6361019B5BB13046B4F90E1000F01EF8CE
S3150800353C28B1A38923F0030343F00103A381A389CC
S3150800354C1D43A581CFE7000038B50023064D044678
S3150800355C084611462B60FDF7E3F8431C02D12B688D
S3150800356C03B1236038BD00BF3C02002038B50023E8
S3150800357C054D044608462B60FDF7E1F8431C02D1BD
S3150800358C2B6803B1236038BD3C02002038B50023F4
S3150800359C054D044608462B60FDF7E8F8431C02D196
S315080035AC2B6803B1236038BD3C020020034610B5D6
S315080035BCC9B202449342184601D1002003E00478AC
S315080035CC01338C42F6D110BDF8B500BFF8BC08BC67
S315080035DC9E467047F8B500BFF8BC08BC9E467047B7
S315080035EC41726320626567696E00000056616C75EE
S315080035FC65206F662061646420697320256C7520CC
S3150800360C616E642070706D20697320256C750A00D4
S3150800361C0000000000000000010203040607080968
S3150800362C000000000102030402030405060708094A
S3150800363C0A0B0C0D0E0F10100102000002030405F4
S3150800364C060708090A0B0C0D0E0F10100102232D84
S3150800365C302B2000686C4C00656667454647003081
S3150800366C31323334353637383941424344454600CE
S3150800367C30313233343536373839616263646566CE
S3090800368C000000002C
S3090800369031010008EE
S309080036940D0100080E
S315080036980024F400100000000100000000000000EB
S315080036A803000000000100200000000000010020BF
S315080036B868010020D001002000000000000000007A
S315080036C800000000000000000000000000000000E4
S315080036D800000000000000000000000000000000D4
S315080036E800000000000000000000000000000000C4
S30D080036F8000000001800002084
S705080007F1FA
